{
  "contractName": "Room",
  "abi": [
    {
      "inputs": [],
      "payable": false,
      "stateMutability": "nonpayable",
      "type": "constructor"
    },
    {
      "constant": true,
      "inputs": [
        {
          "internalType": "string",
          "name": "",
          "type": "string"
        }
      ],
      "name": "DeviceMap",
      "outputs": [
        {
          "internalType": "uint256",
          "name": "",
          "type": "uint256"
        }
      ],
      "payable": false,
      "stateMutability": "view",
      "type": "function"
    },
    {
      "constant": true,
      "inputs": [
        {
          "internalType": "uint256",
          "name": "",
          "type": "uint256"
        }
      ],
      "name": "DeviceMapRev",
      "outputs": [
        {
          "internalType": "string",
          "name": "",
          "type": "string"
        }
      ],
      "payable": false,
      "stateMutability": "view",
      "type": "function"
    },
    {
      "constant": true,
      "inputs": [
        {
          "internalType": "uint256",
          "name": "",
          "type": "uint256"
        }
      ],
      "name": "DeviceName",
      "outputs": [
        {
          "internalType": "string",
          "name": "",
          "type": "string"
        }
      ],
      "payable": false,
      "stateMutability": "view",
      "type": "function"
    },
    {
      "constant": true,
      "inputs": [],
      "name": "ac",
      "outputs": [
        {
          "internalType": "uint256",
          "name": "",
          "type": "uint256"
        }
      ],
      "payable": false,
      "stateMutability": "view",
      "type": "function"
    },
    {
      "constant": true,
      "inputs": [],
      "name": "fan",
      "outputs": [
        {
          "internalType": "uint256",
          "name": "",
          "type": "uint256"
        }
      ],
      "payable": false,
      "stateMutability": "view",
      "type": "function"
    },
    {
      "constant": true,
      "inputs": [],
      "name": "light",
      "outputs": [
        {
          "internalType": "uint256",
          "name": "",
          "type": "uint256"
        }
      ],
      "payable": false,
      "stateMutability": "view",
      "type": "function"
    },
    {
      "constant": true,
      "inputs": [],
      "name": "numDeviceAdd",
      "outputs": [
        {
          "internalType": "uint256",
          "name": "",
          "type": "uint256"
        }
      ],
      "payable": false,
      "stateMutability": "view",
      "type": "function"
    },
    {
      "constant": true,
      "inputs": [],
      "name": "power",
      "outputs": [
        {
          "internalType": "uint256",
          "name": "",
          "type": "uint256"
        }
      ],
      "payable": false,
      "stateMutability": "view",
      "type": "function"
    },
    {
      "constant": true,
      "inputs": [],
      "name": "tv",
      "outputs": [
        {
          "internalType": "uint256",
          "name": "",
          "type": "uint256"
        }
      ],
      "payable": false,
      "stateMutability": "view",
      "type": "function"
    },
    {
      "constant": false,
      "inputs": [
        {
          "internalType": "string",
          "name": "Devicename",
          "type": "string"
        },
        {
          "internalType": "uint256",
          "name": "DeviceId",
          "type": "uint256"
        }
      ],
      "name": "addDevice",
      "outputs": [],
      "payable": false,
      "stateMutability": "nonpayable",
      "type": "function"
    },
    {
      "constant": false,
      "inputs": [],
      "name": "Numberofdevice",
      "outputs": [
        {
          "internalType": "uint256",
          "name": "num",
          "type": "uint256"
        }
      ],
      "payable": false,
      "stateMutability": "nonpayable",
      "type": "function"
    },
    {
      "constant": false,
      "inputs": [
        {
          "internalType": "uint256",
          "name": "_temp",
          "type": "uint256"
        }
      ],
      "name": "Temperature",
      "outputs": [
        {
          "internalType": "string",
          "name": "res",
          "type": "string"
        }
      ],
      "payable": false,
      "stateMutability": "nonpayable",
      "type": "function"
    },
    {
      "constant": false,
      "inputs": [
        {
          "internalType": "uint256",
          "name": "_var",
          "type": "uint256"
        }
      ],
      "name": "Light",
      "outputs": [
        {
          "internalType": "string",
          "name": "res",
          "type": "string"
        }
      ],
      "payable": false,
      "stateMutability": "nonpayable",
      "type": "function"
    },
    {
      "constant": false,
      "inputs": [
        {
          "internalType": "uint256",
          "name": "_var",
          "type": "uint256"
        }
      ],
      "name": "Tv",
      "outputs": [
        {
          "internalType": "string",
          "name": "res",
          "type": "string"
        }
      ],
      "payable": false,
      "stateMutability": "nonpayable",
      "type": "function"
    },
    {
      "constant": false,
      "inputs": [
        {
          "internalType": "uint256",
          "name": "_var",
          "type": "uint256"
        }
      ],
      "name": "Power",
      "outputs": [
        {
          "internalType": "string",
          "name": "res",
          "type": "string"
        }
      ],
      "payable": false,
      "stateMutability": "nonpayable",
      "type": "function"
    }
  ],
  "bytecode": "0x608060405234801561001057600080fd5b506000600281905550600060038190555060006004819055506000600581905550600160068190555060006008819055506110b0806100506000396000f3fe608060405234801561001057600080fd5b50600436106100f55760003560e01c806397296c2511610097578063cfe59d5611610066578063cfe59d561461050f578063e283e436146105b6578063f91b9b7414610685578063fb774755146106a3576100f5565b806397296c25146102de578063b484970814610385578063bd8a73221461042c578063c826f41a1461044a576100f5565b806354b7c39b116100d357806354b7c39b14610266578063616b697e1461028457806364dbe78c146102a2578063783742c1146102c0576100f5565b806307cd2de8146100fa5780634a4d59fa146101a15780634e426b9f146101bf575b600080fd5b6101266004803603602081101561011057600080fd5b810190808035906020019092919050505061074a565b6040518080602001828103825283818151815260200191508051906020019080838360005b8381101561016657808201518184015260208101905061014b565b50505050905090810190601f1680156101935780820380516001836020036101000a031916815260200191505b509250505060405180910390f35b6101a9610836565b6040518082815260200191505060405180910390f35b6101eb600480360360208110156101d557600080fd5b810190808035906020019092919050505061083c565b6040518080602001828103825283818151815260200191508051906020019080838360005b8381101561022b578082015181840152602081019050610210565b50505050905090810190601f1680156102585780820380516001836020036101000a031916815260200191505b509250505060405180910390f35b61026e610962565b6040518082815260200191505060405180910390f35b61028c610968565b6040518082815260200191505060405180910390f35b6102aa61096e565b6040518082815260200191505060405180910390f35b6102c8610974565b6040518082815260200191505060405180910390f35b61030a600480360360208110156102f457600080fd5b810190808035906020019092919050505061097e565b6040518080602001828103825283818151815260200191508051906020019080838360005b8381101561034a57808201518184015260208101905061032f565b50505050905090810190601f1680156103775780820380516001836020036101000a031916815260200191505b509250505060405180910390f35b6103b16004803603602081101561039b57600080fd5b8101908080359060200190929190505050610ab0565b6040518080602001828103825283818151815260200191508051906020019080838360005b838110156103f15780820151818401526020810190506103d6565b50505050905090810190601f16801561041e5780820380516001836020036101000a031916815260200191505b509250505060405180910390f35b610434610bd6565b6040518082815260200191505060405180910390f35b61050d6004803603604081101561046057600080fd5b810190808035906020019064010000000081111561047d57600080fd5b82018360208201111561048f57600080fd5b803590602001918460018302840111640100000000831117156104b157600080fd5b91908080601f016020809104026020016040519081016040528093929190818152602001838380828437600081840152601f19601f82011690508083019250505050505050919291929080359060200190929190505050610bdc565b005b61053b6004803603602081101561052557600080fd5b8101908080359060200190929190505050610da5565b6040518080602001828103825283818151815260200191508051906020019080838360005b8381101561057b578082015181840152602081019050610560565b50505050905090810190601f1680156105a85780820380516001836020036101000a031916815260200191505b509250505060405180910390f35b61066f600480360360208110156105cc57600080fd5b81019080803590602001906401000000008111156105e957600080fd5b8201836020820111156105fb57600080fd5b8035906020019184600183028401116401000000008311171561061d57600080fd5b91908080601f016020809104026020016040519081016040528093929190818152602001838380828437600081840152601f19601f820116905080830192505050505050509192919290505050610e5e565b6040518082815260200191505060405180910390f35b61068d610e8c565b6040518082815260200191505060405180910390f35b6106cf600480360360208110156106b957600080fd5b8101908080359060200190929190505050610e92565b6040518080602001828103825283818151815260200191508051906020019080838360005b8381101561070f5780820151818401526020810190506106f4565b50505050905090810190601f16801561073c5780820380516001836020036101000a031916815260200191505b509250505060405180910390f35b606060018214156107c5576001600654141561079d576040518060400160405280601d81526020017f416c726561647920506f776572206973204f6e20666f7220726f6f6d310000008152509050610831565b6001600681905550604051806060016040528060248152602001610fe8602491399050610831565b6000600654141561080d576040518060400160405280601f81526020017f416c726561647920706f776572206973206f666620666f7220726f6f6d2031008152509050610831565b60006006819055506040518060600160405280602481526020016110356024913990505b919050565b60065481565b606060008214156108d4576000600454141561088f576040518060400160405280601581526020017f416c7265616479206c69676874206973206f6666200000000000000000000000815250905061095d565b60006004819055506040518060400160405280601881526020017f537769746368696e67206f666620746865206c69676874200000000000000000815250905061095d565b6001600454141561091c576040518060400160405280601481526020017f416c7265616479206c69676874206973206f6e20000000000000000000000000815250905061095d565b60016004819055506040518060400160405280601781526020017f537769746368696e67206f6e20746865206c696768742000000000000000000081525090505b919050565b60035481565b60085481565b60045481565b6000600854905090565b6060600f8210156109b9576000600381905550600060028190555060405180606001604052806029815260200161100c602991399050610aab565b600f82101580156109ca5750601982105b15610a1c57600060038190555060016002819055506040518060400160405280601c81526020017f5475726e696e67206f6e207468652046616e20666f7220726f6f6d31000000008152509050610aab565b60198210158015610a2d5750602382105b15610a7f57600160038190555060006002819055506040518060400160405280601b81526020017f747572696e67206f6e2074686520616320666f7220726f6f6d312000000000008152509050610aab565b600160038190555060016002819055506040518060600160405280602381526020016110596023913990505b919050565b60606001821415610b485760016005541415610b03576040518060400160405280601081526020017f416c7265616479205476206973206f6e000000000000000000000000000000008152509050610bd1565b60016005819055506040518060400160405280601181526020017f5475726e696e67206f6e207468652054560000000000000000000000000000008152509050610bd1565b60006005541415610b90576040518060400160405280601181526020017f547620697320616c7265616479206f66660000000000000000000000000000008152509050610bd1565b60006005819055506040518060400160405280601281526020017f5475726e696e67206f666620746865207476000000000000000000000000000081525090505b919050565b60055481565b600080836040518082805190602001908083835b60208310610c135780518252602082019150602081019050602083039250610bf0565b6001836020036101000a03801982511681845116808217855250505050505090500191505090815260200160405180910390205414610cba576040517f08c379a000000000000000000000000000000000000000000000000000000000815260040180806020018281038252601c8152602001807f44657669636520697320616c726561647920726567697374657265640000000081525060200191505060405180910390fd5b806000836040518082805190602001908083835b60208310610cf15780518252602082019150602081019050602083039250610cce565b6001836020036101000a03801982511681845116808217855250505050505090500191505090815260200160405180910390208190555081600160008381526020019081526020016000209080519060200190610d4f929190610f42565b506008600081548092919060010191905055506007829080600181540180825580915050906001820390600052602060002001600090919290919091509080519060200190610d9f929190610f42565b50505050565b60078181548110610db257fe5b906000526020600020016000915090508054600181600116156101000203166002900480601f016020809104026020016040519081016040528092919081815260200182805460018160011615610100020316600290048015610e565780601f10610e2b57610100808354040283529160200191610e56565b820191906000526020600020905b815481529060010190602001808311610e3957829003601f168201915b505050505081565b6000818051602081018201805184825260208301602085012081835280955050505050506000915090505481565b60025481565b60016020528060005260406000206000915090508054600181600116156101000203166002900480601f016020809104026020016040519081016040528092919081815260200182805460018160011615610100020316600290048015610f3a5780601f10610f0f57610100808354040283529160200191610f3a565b820191906000526020600020905b815481529060010190602001808311610f1d57829003601f168201915b505050505081565b828054600181600116156101000203166002900490600052602060002090601f016020900481019282601f10610f8357805160ff1916838001178555610fb1565b82800160010185558215610fb1579182015b82811115610fb0578251825591602001919060010190610f95565b5b509050610fbe9190610fc2565b5090565b610fe491905b80821115610fe0576000816000905550600101610fc8565b5090565b9056fe537563636566756c6c79205475726e6564206f6e20706f77657220666f7220726f6f6d31546f6f20636f6c6420747572696e67206f66662066616e20616e6420616320666f7220726f6f6d3120537563636566756c6c79205475726e6564206f666620706f776572206f6620726f6f6d317475726e696e67206f6e207468652066616e20616e6420616320666f7220726f6f6d31a265627a7a72315820e054193cd91fb275de0cf525f015ff4cb388ec6844386f92eaf5eb3049a01dd764736f6c63430005100032",
  "source": "pragma solidity 0.5.16;\n\ncontract Room {\n\n  \n  mapping (string  => uint) public DeviceMap;\n  mapping (uint => string) public DeviceMapRev;\n  uint public fan;\n  uint public ac;\n  uint public light;\n  uint public tv;\n  uint public power;\n  string[] public DeviceName;\n  uint public numDeviceAdd;\n\n\n  constructor() public  {\n  fan=0;\n  ac=0;\n  light=0;\n  tv=0;\n  power=1;\n  numDeviceAdd=0;\n}\n\n\n\nfunction addDevice(string memory  Devicename, uint DeviceId) public {\n\trequire(DeviceMap[Devicename]==0, \"Device is already registered\");\n    //require((DeviceMapRev[DeviceId])==0, \"Device is already registered\");\n\tDeviceMap[Devicename] = DeviceId;\n\tDeviceMapRev[DeviceId] = Devicename;\n\tnumDeviceAdd++;\n\tDeviceName.push(Devicename);\n}\n\n\nfunction Numberofdevice () public returns (uint num){\n\treturn numDeviceAdd;\n}\n\nfunction Temperature(uint _temp) public returns (string memory res){\n\tif(_temp<15){\n\t\tac=0;\n\t\tfan=0;\n\t\treturn \"Too cold turing off fan and ac for room1 \";\n\t}\n\tif(_temp>=15 && _temp<25){\n\t ac=0;\n\t fan=1;\n\t return \"Turning on the Fan for room1\";\n\t}\n\n\telse if(_temp>=25 && _temp<35){\n\t\tac=1;\n\t\tfan=0;\n\t\treturn \"turing on the ac for room1 \";\n\t}\n\telse{\n\t\tac=1;\n\t\tfan=1;\n\t\treturn \"turning on the fan and ac for room1\";\n\t}\n}\n\nfunction Light(uint _var) public returns (string memory res){\n\tif(_var==0)\n\t{\n\t\tif(light==0)\n\t\treturn \"Already light is off \";\n\t\tlight=0;\n\t\treturn \"Switching off the light \";\n\t}\n\telse\n\t{\n\t\tif(light==1)\n\t\treturn \"Already light is on \";\n\t\tlight=1;\n\t\treturn \"Switching on the light \";\n\t}\n}\n\n\nfunction Tv(uint _var) public returns (string memory res){\n\tif(_var==1){\n\t\tif(tv==1)\n\t\treturn \"Already Tv is on\";\n\t\ttv=1;\n\t\treturn \"Turning on the TV\";\n\t}\n\telse{\n\t\tif(tv==0)\n\t\treturn \"Tv is already off\";\n\n\t\ttv=0;\n\t\treturn \"Turning off the tv\";\n\t}\n\n}\n\nfunction Power(uint _var) public returns (string memory res){\n\tif(_var==1){\n\t\tif(power==1)\n\t\treturn \"Already Power is On for room1\";\n\t\tpower=1;\n\t\treturn \"Succefully Turned on power for room1\";\n\t}\n\telse{\n\t\tif(power==0)\n\t\treturn \"Already power is off for room 1\";\n\t\tpower=0;\n\t\treturn \"Succefully Turned off power of room1\";\n\t}\n}\n\n\n}\n\n\n\n//////////////////////////////////////////////////////////////////////////////////////\n\n\n\n\n",
  "sourcePath": "/home/ny826/Downloads/2nd sem/Blockchain/Smart Home/contracts/Room.sol",
  "compiler": {
    "name": "solc",
    "version": "0.5.16+commit.9c3226ce.Emscripten.clang"
  },
  "schemaVersion": "3.1.0",
  "updatedAt": "2020-05-26T14:43:30.914Z",
  "networkType": "ethereum",
  "devdoc": {
    "methods": {}
  },
  "userdoc": {
    "methods": {}
  }
}